:020000040000fa
:080000000002040000000000f2
:020000040000fa
:04000800e20300000f
:020000040000fa
:04000c0024040000c8
:020000040000fa
:040010006404000084
:020000040000fa
:0400140002040000e2
:020000040000fa
:04001800440400009c
:020000040000fa
:04001c005606000084
:020000040000fa
:040020008404000054
:020000040000fa
:04002400560600007c
:020000040000fa
:040028005606000078
:020000040000fa
:04002c00fa050000d1
:020000040000fa
:040030005606000070
:020000040000fa
:04003400560600006c
:020000040000fa
:040038005606000068
:020000040000fa
:04003c005606000064
:020000040000fa
:040040005606000060
:020000040000fa
:04004400560600005c
:020000040000fa
:040048005606000058
:020000040000fa
:04004c005606000054
:020000040000fa
:040050005606000050
:020000040000fa
:04005400560600004c
:020000040000fa
:040058005606000048
:020000040000fa
:04005c005606000044
:020000040000fa
:040060005606000040
:020000040000fa
:04006400560600003c
:020000040000fa
:040068005606000038
:020000040000fa
:04006c005606000034
:020000040000fa
:040070005606000030
:020000040000fa
:04007400560600002c
:020000040000fa
:040078005606000028
:020000040000fa
:04007c005606000024
:020000040000fa
:040080005606000020
:020000040000fa
:04008400560600001c
:020000040000fa
:040088005606000018
:020000040000fa
:04008c005606000014
:020000040000fa
:040090005606000010
:020000040000fa
:04009400560600000c
:020000040000fa
:040098005606000008
:020000040000fa
:04009c005606000004
:020000040000fa
:0400a0005606000000
:020000040000fa
:0400a40056060000fc
:020000040000fa
:0400a80056060000f8
:020000040000fa
:0400ac0056060000f4
:020000040000fa
:0400b00056060000f0
:020000040000fa
:0400b40056060000ec
:020000040000fa
:0400b80056060000e8
:020000040000fa
:0400bc0056060000e4
:020000040000fa
:0400c00056060000e0
:020000040000fa
:0400c40056060000dc
:020000040000fa
:0400c80056060000d8
:020000040000fa
:0400cc0056060000d4
:020000040000fa
:0400d00056060000d0
:020000040000fa
:0400d40056060000cc
:020000040000fa
:0400d80056060000c8
:020000040000fa
:0400dc0056060000c4
:020000040000fa
:0400e00056060000c0
:020000040000fa
:0400e40056060000bc
:020000040000fa
:0400e80056060000b8
:020000040000fa
:0400ec0056060000b4
:020000040000fa
:0400f00056060000b0
:020000040000fa
:0400f40056060000ac
:020000040000fa
:0400f80056060000a8
:020000040000fa
:0400fc0056060000a4
:020000040000fa
:04010000560600009f
:020000040000fa
:04010400560600009b
:020000040000fa
:040108005606000097
:020000040000fa
:04010c005606000093
:020000040000fa
:04011000560600008f
:020000040000fa
:04011400560600008b
:020000040000fa
:040118005606000087
:020000040000fa
:04011c005606000083
:020000040000fa
:04012000560600007f
:020000040000fa
:04012400560600007b
:020000040000fa
:040128005606000077
:020000040000fa
:04012c005606000073
:020000040000fa
:04013000560600006f
:020000040000fa
:04013400560600006b
:020000040000fa
:04013800300600008d
:020000040000fa
:04013c005606000063
:020000040000fa
:04014000560600005f
:020000040000fa
:04014400560600005b
:020000040000fa
:040148005606000057
:020000040000fa
:04014c005606000053
:020000040000fa
:04015000560600004f
:020000040000fa
:04015400560600004b
:020000040000fa
:040158005606000047
:020000040000fa
:04015c005606000043
:020000040000fa
:04016000560600003f
:020000040000fa
:04016400560600003b
:020000040000fa
:040168005606000037
:020000040000fa
:04016c005606000033
:020000040000fa
:04017000560600002f
:020000040000fa
:04017400560600002b
:020000040000fa
:040178005606000027
:020000040000fa
:04017c005606000023
:020000040000fa
:04018000560600001f
:020000040000fa
:04018400560600001b
:020000040000fa
:040188005606000017
:020000040000fa
:04018c005606000013
:020000040000fa
:04019000560600000f
:020000040000fa
:04019400560600000b
:020000040000fa
:040198005606000007
:020000040000fa
:04019c005606000003
:020000040000fa
:0401a00056060000ff
:020000040000fa
:0401a40056060000fb
:020000040000fa
:0401a80056060000f7
:020000040000fa
:0401ac0056060000f3
:020000040000fa
:0401b00056060000ef
:020000040000fa
:0401b40056060000eb
:020000040000fa
:0401b80056060000e7
:020000040000fa
:0401bc0056060000e3
:020000040000fa
:0401c00056060000df
:020000040000fa
:0401c40056060000db
:020000040000fa
:0401c80056060000d7
:020000040000fa
:0401cc0056060000d3
:020000040000fa
:0401d00056060000cf
:020000040000fa
:0401d400ce04000055
:020000040000fa
:0401d8000a05000014
:020000040000fa
:0401dc0046050000d4
:020000040000fa
:0401e0008205000094
:020000040000fa
:0401e400be05000054
:020000040000fa
:0401e80056060000b7
:020000040000fa
:0401ec0056060000b3
:020000040000fa
:0401f00056060000af
:020000040000fa
:0401f40056060000ab
:020000040000fa
:0401f80056060000a7
:020000040000fa
:0401fc0056060000a3
:020000040000fa
:04020000560600009e
:020000040000fa
:04020400560600009a
:020000040000fa
:040208005606000096
:020000040000fa
:04020c005606000092
:020000040000fa
:04021000560600008e
:020000040000fa
:04021400560600008a
:020000040000fa
:040218005606000086
:020000040000fa
:04021c005606000082
:020000040000fa
:04022000560600007e
:020000040000fa
:04022400560600007a
:020000040000fa
:040228005606000076
:020000040000fa
:04022c005606000072
:020000040000fa
:04023000560600006e
:020000040000fa
:04023400560600006a
:020000040000fa
:040238005606000066
:020000040000fa
:04023c005606000062
:020000040000fa
:04024000560600005e
:020000040000fa
:04024400560600005a
:020000040000fa
:040248005606000056
:020000040000fa
:04024c005606000052
:020000040000fa
:04025000560600004e
:020000040000fa
:04025400560600004a
:020000040000fa
:040258005606000046
:020000040000fa
:04025c005606000042
:020000040000fa
:04026000560600003e
:020000040000fa
:04026400560600003a
:020000040000fa
:040268005606000036
:020000040000fa
:04026c005606000032
:020000040000fa
:04027000560600002e
:020000040000fa
:04027400560600002a
:020000040000fa
:040278005606000026
:020000040000fa
:04027c005606000022
:020000040000fa
:04028000560600001e
:020000040000fa
:04028400560600001a
:020000040000fa
:040288005606000016
:020000040000fa
:04028c005606000012
:020000040000fa
:04029000560600000e
:020000040000fa
:04029400560600000a
:020000040000fa
:040298005606000006
:020000040000fa
:04029c005606000002
:020000040000fa
:0402a00056060000fe
:020000040000fa
:0402a40056060000fa
:020000040000fa
:0402a80056060000f6
:020000040000fa
:0402ac0056060000f2
:020000040000fa
:0402b00056060000ee
:020000040000fa
:0402b40056060000ea
:020000040000fa
:0402b80056060000e6
:020000040000fa
:0402bc0056060000e2
:020000040000fa
:0402c00056060000de
:020000040000fa
:0402c40056060000da
:020000040000fa
:0402c80056060000d6
:020000040000fa
:0402cc0056060000d2
:020000040000fa
:0402d00056060000ce
:020000040000fa
:0402d40056060000ca
:020000040000fa
:0402d80056060000c6
:020000040000fa
:0402dc0056060000c2
:020000040000fa
:0402e00056060000be
:020000040000fa
:0402e40056060000ba
:020000040000fa
:0402e80056060000b6
:020000040000fa
:0402ec0056060000b2
:020000040000fa
:0402f00056060000ae
:020000040000fa
:0402f40056060000aa
:020000040000fa
:0402f80056060000a6
:020000040000fa
:0402fc0056060000a2
:020000040000fa
:04030000560600009d
:020000040000fa
:040304005606000099
:020000040000fa
:040308005606000095
:020000040000fa
:04030c005606000091
:020000040000fa
:04031000560600008d
:020000040000fa
:040314005606000089
:020000040000fa
:040318005606000085
:020000040000fa
:04031c005606000081
:020000040000fa
:04032000560600007d
:020000040000fa
:100400004f0821000eff27000e0188000000200089
:100410000000e000020032000001200020028800fd
:1004200014000700230207000000e00003003a0068
:1004300080fc2000010020000200370000002000a6
:1004400001002000810f70004220ae000f00070065
:10045000000020000000e0004220ae00000002008a
:1004600000000000560f0200000000000040da000b
:100470000000fe00200420000000e0000200320026
:10048000002020009001880000000600a1028800e2
:10049000800478000000eb001f003700e284440075
:1004a00054a0b4009905ba00e284440054a0b400fa
:1004b0009906ba00e284440054a0b4000006eb00a0
:1004c000476fde00fd07b200ae018800636ce100fb
:1004d00003003a000ad801000000eb000e003700cc
:1004e000606ce10008003a00004deb000a05e800ee
:1004f000020039003420ec000af0a0008b05e9006e
:10050000f9ff3e00040037006168e100010032009d
:100510000086eb000b00070019c7ba001905ba00e6
:100520000e04e00003003a000a00e000dbff3a009e
:1005300000000600fe07b200ae0288008a047800c0
:10054000f5ff37000cd0a300e20f4d001c003b006c
:1005500089027800354dba000a05e800020039002a
:100560003420ec000af0a0008b05e9000f003200f7
:10057000254dba000a05e800020039003420ec00dd
:100580000af0a0008b05e900080032000c00e00032
:100590000600320015cdba000a05e8000200390055
:1005a0003420ec000af0a0008b05e9008984e80003
:1005b00054a0b4000b00e000e2ff3a000000060087
:1005c0009902ba00055d78008b05e900f7ff32005b
:1005d000c82ade00055d78008b05e900f3ff3200d4
:1005e0000c00e000f1ff320019ddba00eeff370029
:1005f0006100e10001003200100005005400f80025
:1006000050102000a002880000f927001000ba0056
:100610005400f9000700260000f0a6008703d1006f
:100620000703780001c4fe000003eb000120200056
:1006300091018800a1112900111303008703e9002b
:10064000fdff3a0000f0a7000000050000f0a00048
:1006500080c4fe0086037800f3ff37000408200002
:10066000010037000002eb006100e10001003200f0
:10067000100005003200f8003400f8008102780014
:10068000930188003200be000100e0000c0032003f
:100690000470a70000f0a00032037800c733de002a
:1006a000848343004220af008703e800a70188004d
:1006b000f607b2007f30e100040032002000200085
:1006c0003400f9003200f900000006008100e90062
:1006d0000500e00003003a00018009003210030029
:1006e000e8ff37000180090032900300d561ae00b9
:1006f000e4ff370030002000f1ff370050052000f4
:10070000b00e8800a00a2000b00e8800d3e1a80037
:100710000000060050052000b00e8800a00a20004e
:10072000b00e8800d3e1a90000000600b40904005f
:1007300000000000c8100400000000000e0a0400c1
:1007400000000000280a0400000000005a0a04000b
:1007500000000000880a040000000000b80a04003d
:1007600000000000c40a040000000000ea0a0400bf
:1007700000000000ce0a0400000000007007040022
:10078000000000009e07040000000000d0070400e5
:1007900000000000e407040000000000f807040067
:1007a000000000000c080400000000002008040005
:1007b000000000003a0f0400000000006c0b040071
:1007c000000000003600f800809fbe00829fbe003f
:1007d000849fbe00869fbe000000fa00c028a900ca
:1007e0000000eb00870607000080fa004f03be0000
:1007f0004f02be004f01be004f00be003600f900a0
:10080000004006003600f800809fbe00829fbe00b8
:10081000849fbe00869fbe000000fa007e0607008f
:10082000c048a90010002000760607000080fa00ea
:100830004f03be004f02be004f01be004f00be007e
:100840003600f900004006003600f800809fbe0028
:10085000829fbe00849fbe00869fbe000000fa00fb
:10086000c068a90020002000660607000080fa008a
:100870004f03be004f02be004f01be004f00be003e
:100880003600f900004006003600f800809fbe00e8
:10089000829fbe00849fbe00869fbe000000fa00bb
:1008a000c088a90030002000560607000080fa002a
:1008b0004f03be004f02be004f01be004f00be00fe
:1008c0003600f900004006003600f800809fbe00a8
:1008d000829fbe00849fbe00869fbe000000fa007b
:1008e000c608a90070002000460607000080fa0034
:1008f0004f03be004f02be004f01be004f00be00be
:100900003600f900004006003600f800809fbe0067
:10091000829fbe00849fbe00869fbe000000fa003a
:100920002146800000102000008060000000e000f0
:1009300003003200c508a900c000200031060700ee
:100940002146800000022000008060000000e000de
:1009500003003200c4a8a900900020002906070067
:1009600020468000700060000000e00003003200bc
:10097000c488a900a00020002206070020468000ad
:10098000610060000000e00003003200c408a9001c
:10099000b00020001b060700ffff37003600f800fc
:1009a000809fbe00829fbe00849fbe00869fbe00c7
:1009b0003200f8003400f80010002000a001880088
:1009c0000020200000d0fe000200fa0061618000db
:1009d000010f7800208080000000e000030032005a
:1009e000218080001e007800010001000d68a90030
:1009f0000080fa003400f9003200f9004f03be0015
:100a00004f02be004f01be004f00be003600f9008d
:100a1000004006003600f800809fbe00829fbe00a6
:100a2000849fbe00869fbe003200f8003400f800ac
:100a300010002000a00188000020200000d0fe004f
:100a40000200fa0071618000010f780030808000a0
:100a50000000e00003003200318080001e007800ba
:100a6000010001000d88a9000080fa003400f9009f
:100a70003200f9004f03be004f02be004f01be001e
:100a80004f00be003600f900004006003600f800b6
:100a9000809fbe00829fbe00849fbe00869fbe00d6
:100aa0003200f8003400f80010002000a001880097
:100ab0000020200000d0fe000200fa0081618000ca
:100ac000010f7800408080000000e0000300320049
:100ad000418080001e007800010001000da8a900df
:100ae0000080fa003400f9003200f9004f03be0024
:100af0004f02be004f01be004f00be003600f9009d
:100b0000004006003600f800809fbe00829fbe00b5
:100b1000849fbe00869fbe003200f8003400f800bb
:100b200010002000a00188000020200000d0fe005e
:100b30000200fa0091618000010f7800508080006f
:100b40000000e00003003200518080001e007800a9
:100b5000010001000dc8a9000080fa003400f9006e
:100b60003200f9004f03be004f02be004f01be002d
:100b70004f00be003600f900004006003600f800c5
:100b8000809fbe00829fbe00849fbe00869fbe00e5
:100b90003200f8003400f80010002000a0018800a6
:100ba0000020200000d0fe000200fa00a1618000b9
:100bb000010f7800608080000000e0000300320038
:100bc000618080001e007800010001000de8a9008e
:100bd0000080fa003400f9003200f9004f03be0033
:100be0004f02be004f01be004f00be003600f900ac
:100bf000004006003600f800809fbe00829fbe00c5
:100c0000849fbe00869fbe000000fa00f080800036
:100c10000000e00002003200f080800000000100cf
:100c200030082100104078008040e80030082100a2
:100c3000014878002008210011c0b3000148780065
:100c40000028a9000080fa004f03be004f02be003a
:100c50004f01be004f00be003600f9000040060004
:100c60003600f800809fbe00829fbe00849fbe00b9
:100c7000869fbe000000fa00008180000000e000b6
:100c80000200320000818000000001000888a900f5
:100c90000080fa004f03be004f02be004f01be00ad
:100ca0004f00be003600f900004006000040da00a8
:080cb0000000fe000000050039
:020000040000fa
:100cb8003c2a00002020000020480000454c00008d
:100cc8004c4f000020200000202000002a3e000099
:100cd800003c00002a20000020200000574f0000a0
:100ce800524c00004420000020200000202a000070
:100cf8003e000000b4090000c81000000e0a000001
:100d0800280a00005a0a0000880a0000b80a0000f1
:100d1800c40a0000ea0a0000ce0a00002001000010
:100d28001300000000000000200100000f00000078
:040d380000000000b7
:020000040000fa
:100d3c000000fa00002bef0000062000105888007d
:100d4c00042bef00062bef00082bef000a2bef0013
:100d5c00102bef00122bef00142bef00202bef00c9
:100d6c00f001200010598800382bef00402bef00c9
:100d7c00482bef00502bef003a2bef00422bef00eb
:100d8c004a2bef00522bef003c2bef00442bef00d3
:100d9c004c2bef00542bef003e2bef00462bef00bb
:100dac004e2bef00562bef0000402000505b8800cc
:100dbc0000402000705b880000402000905b8800a1
:100dcc0000402000b05b8800a02bef00a42bef00ac
:100ddc00a82bef00ac2bef00d02bef00d22bef00a9
:100dec00f02bef00f22bef00022cef00007720002d
:100dfc003b000700e079200051000700007d200037
:100e0c0068000700407e200070000700807f2000f3
:100e1c0078000700c08020008000070000822000be
:100e2c00880007000d68a9002d68a8000d88a9008e
:100e3c002d88a8000da8a9002da8a8000dc8a900f0
:100e4c002dc8a8000de8a9002de8a80011608000ad
:100e5c0000f02000010070001060880001eba80079
:100e6c001100070040012000005c8800822bef007d
:100e7c00842bef00862bef00882bef008a2bef00e2
:100e8c008c2bef008e2bef0010102000805c880064
:100e9c0010102000905c880010002000a05c8800de
:100eac000080fa00000006000000fa0000eca80028
:100ebc00000000000160800000002800008060003d
:100ecc000000e000fbff32000aeba8000080fa00f3
:100edc00000006000000fa000080fa000000060086
:100eec000200fa00000f78001e00780000808800d5
:100efc000080fa00000006000000fa00514080005b
:100f0c0000402000008060000000e000060032007d
:100f1c00008080000000e0000200320000808000b1
:100f2c00000001000b48a9000080fa000000060038
:100f3c000200fa00000f78000080fa0000000600a2
:100f4c000200fa00000f78001e0078001080880064
:100f5c000080fa00000006000200fa0080598000b0
:100f6c00610060000000e000080032006160800059
:100f7c00010f7800108080000000e00003003200b8
:100f8c00118080001e007800010001000080fa0032
:100f9c00000006000200fa00000f78000080fa0042
:100fac00000006000200fa00000f78001e00780016
:100fbc00208088000080fa00000006000200fa0081
:100fcc00000f78000080fa00000006000200fa0012
:100fdc00000f78001e007800308088000080fa0036
:100fec00000006000200fa00000f78000080fa00f2
:100ffc00000006000200fa00000f78001e007800c6
:10100c00408088000080fa00000006000200fa0010
:10101c00000f78000080fa00000006000200fa00c1
:10102c00000f78001e007800508088000080fa00c5
:10103c00000006000200fa00000f78000080fa00a1
:10104c00000006000200fa00000f78001e00780075
:10105c00608088000080fa00000006000400fa009e
:10106c0020479800314798002e4090000080fb00ec
:10107c004400dd00804078003e4090000080fb0082
:10108c004200dd000040780000c07000004f780086
:10109c001e407800f60307001e4078000034a000c4
:1010ac00f3030700100020003c0307001e407800eb
:1010bc00ef03070080022000380307000080fa00cd
:1010cc00000006000600fa004047980051479800bf
:1010dc004e4090000080fb004400de00004f780082
:1010ec004e4090006f406000104798001e80fb003f
:1010fc004400dd00804078005e4090000080fb00e2
:10110c004200dd000040780000c0700020479800cd
:10111c001e4090000080fb004400dd008040780001
:10112c005e4090000080fb004200dd000040780033
:10113c0000c07000304798002e409000cc03070090
:10114c0020002000150307002e4090000034a00062
:10115c00c703070020002000100307003e4090004a
:10116c00c3030700200020000c0307003e40900042
:10117c000034a000be030700800220000703070014
:10118c000080fa00000006000000fa008040eb002e
:10119c0020c0b300cbff070020002000ff02070097
:1011ac000080fa00000006000000fa008040eb000e
:1011bc0010c0b300c3ff070020002000f702070097
:1011cc000080fa00000006000200fa00004f7800d0
:1011dc00114798009e407800800220008088b9005a
:1011ec00804078001e40900000c040000074a000b9
:1011fc008040eb00b3ff07000080fa0000000600ff
:10120c000200fa00004f780011c0b3001e407800b5
:10121c00acff07000080fa00000006000600fa0090
:10122c0010079800414798008040eb004e4090001a
:10123c00e5ff07000040eb00004f78000040eb009a
:10124c00004f78000c0037001e80fb009e009000c1
:10125c0000804000104078000004e00005003200df
:10126c001e80fb009e009000008040001040780023
:10127c00e3ff07001e4fe8001e407800ef4f5000c0
:10128c00f1ff3600c0ff07000080fa0000000600e6
:10129c000200fa00004f78001e407800a9030700f6
:1012ac000080fa00000006000000fa005a6ea80048
:1012bc003eeea8005a8ea800670307000040eb0022
:1012cc006b03070080022000b40207008040eb0093
:1012dc0030c0b30061ff0700a0002000af02070080
:1012ec008040eb0030c0b3005cff0700a000200082
:1012fc00aa0207008040eb0030c0b30057ff070084
:10130c00a0002000a50207008040eb0020c0b30025
:10131c0052ff07008040eb00c0c2b30069ff07001a
:10132c008040eb00c0c0b30066ff07008040eb00bc
:10133c0060c0b30063ff07008040eb00c0c0b30087
:10134c0060ff070020002000940207008eff0700ba
:10135c0095ff07000080fa00000006000000fa006c
:10136c00ade2a9000080fa00000006000200fa00bd
:10137c00000f7800611580000000280000806000dc
:10138c000000e0001f003a001e007800e600b900e3
:10139c008000780020692800008040001000780050
:1013ac00601588001e007800e600b9008080e80017
:1013bc00206928000080400010007800e0158800ab
:1013cc001e007800e600b900e40040002069280007
:1013dc000080400010407800614060000080fb00fd
:1013ec00610060004a00dd00f170800001a0a100e6
:1013fc0001007000f0708800ade2a80010c0b300ce
:10140c00010037000040eb000080fa0000000600ed
:10141c000200fa00004f78001e80fb00c015880007
:10142c0000000000a0158000610060000000e000da
:10143c00fcff3200c0158000004078000080fa00ec
:10144c00000006000600fa0010079800210798001b
:10145c009e009000010f7800060037001e007800f7
:10146c0010407800eaff07009e0078008048780062
:10147c001e0fe8002e00900000f0a7000000ea000c
:10148c000000ea004f00de0000407800ae00900043
:10149c008100e900210798000004e000efff3a000a
:1014ac000080fa00000006000600fa001007980001
:1014bc00210798009e009000010f7800040037006f
:1014cc001e007800104078001e0fe800d0ff0700c7
:1014dc002e00900000f0a7000000ea000000ea00d7
:1014ec004f00de0000407800ae0090008100e90063
:1014fc00210798000004e000f1ff3a000080fa0098
:10150c00000006000600fa0010079800210798005a
:10151c009e009000010f7800050037000040eb00a2
:10152c00bbff07009e007800804878001e0fe80083
:10153c002e00900000f0a7000000ea000000ea0076
:10154c004f00de0000407800ae0090008100e90002
:10155c00210798000004e000f0ff3a000080fa0038
:10156c00000006000200fa00004f78001e80fb000d
:10157c00c01588000080fa00000006000000fa0088
:10158c00c0158000004078000080fa0000000600c2
:10159c000000fa0001408000002020000080600064
:1015ac000000e00006003200e08080000000e00057
:1015bc0002003200e0808000000001000128a90038
:1015cc000080fa00000006000200fa00000f78000c
:1015dc009e007800e18088000080fa000000060080
:1015ec000000fa000023ef000223ef000423ef00b9
:1015fc000623ef000823ef0000012000501888009c
:10160c000c23ef000e23ef001023ef001223ef004a
:10161c001423ef001623ef001823ef001a23ef001a
:10162c001c23ef001e23ef002023ef002223ef00ea
:10163c002423ef002623ef002823ef006223ef0082
:10164c006423ef006623ef00c0002000401b8800dd
:10165c006a23ef006c23ef006e23ef007023ef0082
:10166c007223ef007423ef007623ef007823ef0052
:10167c007a23ef007c23ef007e23ef008023ef0022
:10168c008223ef0040532100201c88008623ef00aa
:10169c0060a62200401c88008a23ef008c23ef00f8
:1016ac008e23ef009023ef009223ef00c0b62000b2
:1016bc00090007000888a9002888a80080002800d5
:1016cc00001b88000080fa00000006000000fa00f1
:1016dc000080fa00000006000200fa00000f7800fb
:1016ec001e007800008188000080fa0000000600cf
:1016fc000000fa000080fa00000006000000fa006a
:10170c00a140800000202000008060000000e0006c
:10171c0002003200f6ff07001528a9000080fa002d
:10172c00000006000000fa000080fa00000006002d
:10173c000000fa00a1408000004020000080600002
:10174c000000e00002003200f6ff07001548a90077
:10175c000080fa00000006000000fa000080fa0089
:10176c00000006000000fa00a1408000008020006c
:10177c00008060000000e00002003200f6ff07006d
:10178c001568a9000080fa00000006000000fa00ad
:10179c000080fa00000006000000fa00a140800062
:1017ac0000002100008060000000e0000200320018
:1017bc00f6ff07001588a9000080fa00000006005b
:1017cc000000fa000080fa00000006000000fa0099
:1017dc00a140800000002200008060000000e000ba
:1017ec0002003200f6ff070015a8a9000080fa00dd
:1017fc00000006000000fa000080fa00000006005d
:10180c000000fa00a140800000002400008060006d
:10181c000000e00002003200f6ff070015c8a90026
:10182c000080fa00000006000000fa00007c800036
:10183c000080fa00000006000200fa00faff070020
:10184c00000f78001e007800240007000004e00060
:10185c000200320000002800710007001e00780012
:10186c002a0007000004e0000200320000002400ff
:10187c006b0007001e007800320007000004e00037
:10188c000200320000202000650007001e007800d6
:10189c003a0007000004e0000200320000082000bb
:1018ac005f0007001e007800420007000004e00003
:1018bc000200320000042000590007001e007800ce
:1018cc004a0007000004e000020032000001200082
:1018dc00530007000080fa00000006000400fa0024
:1018ec00100798000040eb00004f78001e0090009d
:1018fc000000e00002003d0010c0b300004f780073
:10190c001e4078000080fa00000006000400fa0077
:10191c00100798000040eb00004f78009e009000ec
:10192c0000002400008060000000e0000200320093
:10193c0010c0b300004f78001e4078000080fa0001
:10194c00000006000400fa00100798000040eb00ad
:10195c00004f78009e009000002020000080600066
:10196c000000e0000200320010c0b300004f78000d
:10197c001e4078000080fa00000006000400fa0007
:10198c00100798000040eb00004f78009e0090007c
:10199c0000082000008060000000e000020032001f
:1019ac0010c0b300004f78001e4078000080fa0091
:1019bc00000006000400fa00100798000040eb003d
:1019cc00004f78009e009000000420000080600012
:1019dc000000e0000200320010c0b300004f78009d
:1019ec001e4078000080fa00000006000400fa0097
:1019fc00100798000040eb00004f78001e0090008c
:101a0c00700060000000e0000200320010c0b30063
:101a1c00004f78001e4078000080fa00000006009d
:101a2c000200fa00000f78009e80ea00007c800023
:101a3c0000806000007c88000080fa000000060036
:101a4c000000fa00802fef000080fa000000060072
:101a5c000000fa000421ef0080d023004008880029
:101a6c000002280000088800f08080000000e000e0
:101a7c0002003a00a0f32000210007000028a90072
:101a8c002028a800200821008040eb0001487800a5
:101a9c000080fa00000006000200fa00000f780037
:101aac009e00780041088800200821008040eb004f
:101abc00014878000080fa00000006000000fa00df
:101acc00400880000080fa00000006000200fa00c6
:101adc00000f78009e007800210888002008210063
:101aec008040eb00014878000080fa0000000600fe
:101afc000000fa00200880000080fa0000000600b8
:101b0c000200fa00000f78002028a9009e0078003f
:101b1c00f18088002028a8000080fa000000060050
:101b2c000000fa00200821008040eb0001487800fa
:101b3c002028a80001e1a8000080fa00000006009f
:101b4c000000fa0001e1a9002028a9000080fa0099
:101b5c00000006000200fa0020082100104f780057
:101b6c001e4078000004e000030032002008210031
:101b7c008040eb00014878001e4078000080fa009d
:101b8c00000006000000fa00300821001040780028
:101b9c000080fb000080fa00000006000000fa0044
:101bac00300821008040eb00014878000080fa00ea
:101bbc00000006000000fa00062eef00222eef00b7
:101bcc003e2eef005a2eef00762eef00f001200093
:101bdc0010708800d0bf2c00f070880070f72f00b8
:101bec00d071880070fe2f00b0728800e0ff2f00cb
:101bfc00907388000c2eef00282eef00442eef007f
:101c0c00602eef007c2eef000a2eef00262eef0048
:101c1c00422eef005e2eef007a2eef00082eef0022
:101c2c00242eef00402eef005c2eef00782eef00fc
:101c3c00f00120000070880040382000e07088001f
:101c4c0070042000c071880000c02700a0728800ba
:101c5c0000042000807388000000eb005105200078
:101c6c00b1468800a10a2000b146880000688800af
:101c7c00916c8000f00f2c008080600000502000e0
:101c8c0001007000906c8800516c800000fc2f00eb
:101c9c00008060006000b300506c880060c4b3002a
:101cac002cedb7000080200051052000b1468800c3
:101cbc00a10a2000b1468800006888000080fa0064
:101ccc00000006000000fa0010002300307c8800a1
:101cdc0060092000407c88008c2fef00100420004d
:101cec00507c880010102000707c88006009200057
:101cfc00807c880010042000907c88009a2fef00d4
:101d0c00b82fef00ba2fef00be2fef00002def0021
:101d1c00a42fef00a62fef00a82fef00aa2fef00a3
:101d2c00ae2fef00b02fef00b22fef0022002000fb
:101d3c0080072000a109200053f82000804978007a
:101d4c0081497800824978000001eb006004200092
:101d5c007105200043f82000804978008149780003
:101d6c00824978000080fa00000006000000fa00aa
:101d7c00707c8000ee800a00000000000080fb00f8
:101d8c0000f0a7000000ea000000ea004f00de00af
:101d9c00004078000080fa00000006000200fa0003
:101dac00000f78000300370000fa2000010020002b
:101dbc00030107001e00780000f0a7000000ea00f5
:101dcc000000ea004f00de00004078001e0fe90022
:101ddc000004e000f4ff3a000080fa000000060066
:101dec000200fa00000f7800050037000008200000
:101dfc0001002000f200070001fe2f001e8f4000a2
:101e0c001e007800ff0f5000f8ff3e000300370063
:101e1c004000200001002000e90007001e007800af
:101e2c0000f0a7000000ea000000ea004f00de000e
:101e3c00004078001e0fe9000004e000f4ff3a00b7
:101e4c000080fa00000006000000fa0001eba80078
:101e5c000080fa00000006000200fa00000f780073
:101e6c000080fa00000006000000fa00b073800049
:101e7c0000800a00000000000004a2006140600025
:101e8c000080fb0061006000b17380000100a100c4
:101e9c0001007000b07388000080fa00000006009a
:101eac000000fa008800070020042100b0808800a0
:101ebc0020052100c080880000c2b300f4fc07009c
:101ecc00b9fc0700e0ff07000000eb00e2ff070091
:101edc00b08080008040eb00d0fc0700c080800008
:101eec0011c0b300cdfc0700f9ff37000000fa0069
:101efc001143800080ff2f00008060000000a000d4
:101f0c001043880001428000f0f82f000080600030
:101f1c000040a00000428800b1438000f08f2f00e9
:101f2c00008060000080a000b0438800b1438000b6
:101f3c00f0f82f00008060000040a000b043880043
:101f4c00b143800080ff2f00008060000000a000e3
:101f5c00b0438800a1438000f0ff2800008060009f
:101f6c0000c0a000a0438800b1438000f0ff28000f
:101f7c000080600000c0a000b04388000080fa0020
:041f8c00000006004b
:020000040000fa
:101f90006210000020000000800000001a10000005
:101fa0000200000082000000ffff00001c10000083
:101fb0000200000080000000001000000e00000081
:101fc000800000008210000002000000800000007d
:101fd0001e1000000200000080000000221000001f
:101fe0004000000080000000161000000400000007
:101ff0008200000022103200100000000e100000cd
:102000000800000080000000201000000200000016
:08201000800000000000000048
:020000040000fa
:102018000600fa0040479800514798000000eb007e
:102028005e0007005a6ea90000c4b300004f780094
:10203800ce40900011479800de409000214798005c
:10204800310020000e00780018fd07005a6ea80025
:10205800c3fc07000080fa00000006000000fa0038
:102068008040eb0010c0b300e9ff07000080fa00d1
:10207800000006000200fa00004f78009e40780039
:1020880050c1b300e2ff07000080fa00000006001c
:102098000200fa00000f780021028000200f2000c3
:1020a800008060001e007000200288000080fa0096
:1020b800000006000000fa00c3e8a80000000000c5
:1020c800000000000080fa00000006000000fa008e
:1020d800b9fe070086ff0700fbfe070015fb070097
:1020e80040fd070071fc07005afe0700f1ff0700da
:1020f80000022000e6ff07000080fa00000006004a
:102108002000fa0000c2b30062fc0700c165280085
:102118000f000900315f78000e01b1008040eb002c
:102128000e0078003efc070070014700d1662800c9
:102138000f000900315978007000470011c0b30042
:1021480037fc0700f1ff37000400fa002047980029
:102158000000eb00110007003eeea9000040eb0074
:10216800004f7800ae4090001147980021002000f1
:102178000e007800cdfc07003eeea80078fc0700b2
:102188000080fa00000006000000fa000000eb00e2
:1021980077fc07000080fa00000006000200fa0041
:1021a800000f78001e0078000000e00002003a00ee
:1021b800f5ff0700010037000040eb000080fa003f
:0421c800000006000d
:020000040000fa
:1021cc00f03fb1000180b10006003500ee030900bc
:1021dc0000000000403fb1000180b100fbff3d005a
:1021ec001000b000203fb000020035000080090054
:0821fc000000000000000600d5
:020000040000fa
:102204000200fa00000f78009e007800d180880058
:10221400ffff37000000fa00200621008007780045
:10222400a0072100000188000080fa0000000600d9
:020000040000fa
:04223400ffffff00a9
:020000040000fa
:02000004000af0
:04fe0000ffffff0001
:020000040000fa
:02000004000af0
:04fe2000ffffff00e1
:020000040000fa
:02000004000af0
:04fe30007affff0056
:020000040000fa
:02000004000af0
:04fe3800b9ffff000f
:020000040000fa
:02000004000af0
:04fe40006003ff005c
:020000040000fa
:02000004000af0
:04fe4800ffffff00b9
:020000040000fa
:02000004000af0
:04fe5000deffff00d2
:020000040000fa
:02000004000af0
:04fe58000000ff00a7
:020000040000fa
:02000004000af0
:04fe60000000ff009f
:020000040000fa
:02000004000af0
:04fe68000000ff0097
:020000040000fa
:02000004000af0
:04fe70000000ff008f
:020000040000fa
:02000004000af0
:04fe7800ffffff0089
:020000040000fa
:02000004000af0
:04fe8000fffcff0084
:020000040000fa
:02000004000af0
:04fe8800ffffff0079
:020000040000fa
:02000004000af0
:04feb000ffffff0051
:020000040000fa
:02000004000af0
:04fec000ffffff0041
:020000040000fa
:02000004000af0
:04fed000ffffff0031
:020000040000fa
:02000004000af0
:04fee000ffffff0021
:020000040000fa
:02000004000af0
:04fef000ffffff0011
:020000040000fa
:02000004000af0
:04fff800ffffff0008
:020000040000fa
:020000040100f9
:04300000ffffff00cf
:00000001FF
